{
  "_format": "hh-sol-artifact-1",
  "contractName": "LuckyWinnerV1",
  "sourceName": "contracts/LuckyWinnerV1.sol",
  "abi": [
    {
      "inputs": [
        {
          "internalType": "address",
          "name": "_winningNumbers",
          "type": "address"
        }
      ],
      "stateMutability": "nonpayable",
      "type": "constructor"
    },
    {
      "inputs": [],
      "name": "getLatestEthPrice",
      "outputs": [
        {
          "internalType": "int256",
          "name": "",
          "type": "int256"
        }
      ],
      "stateMutability": "view",
      "type": "function"
    },
    {
      "inputs": [],
      "name": "getPlayersLength",
      "outputs": [
        {
          "internalType": "uint256",
          "name": "",
          "type": "uint256"
        }
      ],
      "stateMutability": "view",
      "type": "function"
    },
    {
      "inputs": [],
      "name": "getRoundBalance",
      "outputs": [
        {
          "internalType": "uint256",
          "name": "",
          "type": "uint256"
        }
      ],
      "stateMutability": "view",
      "type": "function"
    },
    {
      "inputs": [],
      "name": "getWinner",
      "outputs": [
        {
          "internalType": "address",
          "name": "",
          "type": "address"
        }
      ],
      "stateMutability": "nonpayable",
      "type": "function"
    },
    {
      "inputs": [],
      "name": "owner",
      "outputs": [
        {
          "internalType": "address",
          "name": "",
          "type": "address"
        }
      ],
      "stateMutability": "view",
      "type": "function"
    },
    {
      "inputs": [],
      "name": "payWinner",
      "outputs": [],
      "stateMutability": "nonpayable",
      "type": "function"
    },
    {
      "inputs": [],
      "name": "play",
      "outputs": [],
      "stateMutability": "payable",
      "type": "function"
    },
    {
      "inputs": [
        {
          "internalType": "uint256",
          "name": "",
          "type": "uint256"
        },
        {
          "internalType": "address",
          "name": "",
          "type": "address"
        }
      ],
      "name": "playedInRound",
      "outputs": [
        {
          "internalType": "bool",
          "name": "",
          "type": "bool"
        }
      ],
      "stateMutability": "view",
      "type": "function"
    },
    {
      "inputs": [
        {
          "internalType": "uint256",
          "name": "",
          "type": "uint256"
        }
      ],
      "name": "players",
      "outputs": [
        {
          "internalType": "address payable",
          "name": "",
          "type": "address"
        }
      ],
      "stateMutability": "view",
      "type": "function"
    },
    {
      "inputs": [],
      "name": "prizePool",
      "outputs": [
        {
          "internalType": "uint256",
          "name": "",
          "type": "uint256"
        }
      ],
      "stateMutability": "view",
      "type": "function"
    },
    {
      "inputs": [
        {
          "internalType": "uint256",
          "name": "",
          "type": "uint256"
        }
      ],
      "name": "roundToWinner",
      "outputs": [
        {
          "internalType": "address",
          "name": "",
          "type": "address"
        }
      ],
      "stateMutability": "view",
      "type": "function"
    },
    {
      "inputs": [],
      "name": "stake",
      "outputs": [
        {
          "internalType": "uint256",
          "name": "",
          "type": "uint256"
        }
      ],
      "stateMutability": "view",
      "type": "function"
    },
    {
      "inputs": [],
      "name": "totalEthPaidOut",
      "outputs": [
        {
          "internalType": "uint256",
          "name": "",
          "type": "uint256"
        }
      ],
      "stateMutability": "view",
      "type": "function"
    },
    {
      "inputs": [],
      "name": "totalRound",
      "outputs": [
        {
          "internalType": "uint256",
          "name": "",
          "type": "uint256"
        }
      ],
      "stateMutability": "view",
      "type": "function"
    }
  ],
  "bytecode": "0x60a060405260018055662386f26fc100006006553480156200002057600080fd5b50604051620014e6380380620014e6833981810160405281019062000046919062000180565b336000806101000a81548173ffffffffffffffffffffffffffffffffffffffff021916908373ffffffffffffffffffffffffffffffffffffffff1602179055508073ffffffffffffffffffffffffffffffffffffffff1660808173ffffffffffffffffffffffffffffffffffffffff168152505073694aa1769357215de4fac081bf1f309adc325306600860006101000a81548173ffffffffffffffffffffffffffffffffffffffff021916908373ffffffffffffffffffffffffffffffffffffffff16021790555050620001b2565b600080fd5b600073ffffffffffffffffffffffffffffffffffffffff82169050919050565b600062000148826200011b565b9050919050565b6200015a816200013b565b81146200016657600080fd5b50565b6000815190506200017a816200014f565b92915050565b60006020828403121562000199576200019862000116565b5b6000620001a98482850162000169565b91505092915050565b608051611318620001ce600039600061049501526113186000f3fe6080604052600436106100dd5760003560e01c806393e84cd91161007f578063cd61386d11610059578063cd61386d1461027f578063d0421a28146102aa578063e9e8b446146102d5578063f71d96cb14610300576100dd565b806393e84cd91461022157806396348ee71461022b578063be71248a14610268576100dd565b8063850f9538116100bb578063850f9538146101635780638da5cb5b1461018e5780638e51001d146101b95780638e7ea5b2146101f6576100dd565b806330c0b9ec146100e25780633a4b66f11461010d578063719ce73e14610138575b600080fd5b3480156100ee57600080fd5b506100f761033d565b6040516101049190610b34565b60405180910390f35b34801561011957600080fd5b506101226103de565b60405161012f9190610b68565b60405180910390f35b34801561014457600080fd5b5061014d6103e4565b60405161015a9190610b68565b60405180910390f35b34801561016f57600080fd5b506101786103ea565b6040516101859190610b68565b60405180910390f35b34801561019a57600080fd5b506101a36103f0565b6040516101b09190610bc4565b60405180910390f35b3480156101c557600080fd5b506101e060048036038101906101db9190610c10565b610414565b6040516101ed9190610bc4565b60405180910390f35b34801561020257600080fd5b5061020b610447565b6040516102189190610bc4565b60405180910390f35b6102296105db565b005b34801561023757600080fd5b50610252600480360381019061024d9190610c69565b610785565b60405161025f9190610cc4565b60405180910390f35b34801561027457600080fd5b5061027d6107b4565b005b34801561028b57600080fd5b50610294610a18565b6040516102a19190610b68565b60405180910390f35b3480156102b657600080fd5b506102bf610a25565b6040516102cc9190610b68565b60405180910390f35b3480156102e157600080fd5b506102ea610a2b565b6040516102f79190610b68565b60405180910390f35b34801561030c57600080fd5b5061032760048036038101906103229190610c10565b610a35565b6040516103349190610d00565b60405180910390f35b600080600860009054906101000a900473ffffffffffffffffffffffffffffffffffffffff1673ffffffffffffffffffffffffffffffffffffffff1663feaf968c6040518163ffffffff1660e01b815260040160a060405180830381865afa1580156103ad573d6000803e3d6000fd5b505050506040513d601f19601f820116820180604052508101906103d19190610d9e565b5050509150508091505090565b60065481565b60045481565b60025481565b60008054906101000a900473ffffffffffffffffffffffffffffffffffffffff1681565b60056020528060005260406000206000915054906101000a900473ffffffffffffffffffffffffffffffffffffffff1681565b6000600380805490501015610491576040517f08c379a000000000000000000000000000000000000000000000000000000000815260040161048890610e9c565b60405180910390fd5b60007f000000000000000000000000000000000000000000000000000000000000000073ffffffffffffffffffffffffffffffffffffffff1663e0c862896040518163ffffffff1660e01b81526004016020604051808303816000875af1158015610500573d6000803e3d6000fd5b505050506040513d601f19601f820116820180604052508101906105249190610ebc565b90506000600380549050826105399190610f18565b905060006003828154811061055157610550610f49565b5b9060005260206000200160009054906101000a900473ffffffffffffffffffffffffffffffffffffffff1690508060056000600154815260200190815260200160002060006101000a81548173ffffffffffffffffffffffffffffffffffffffff021916908373ffffffffffffffffffffffffffffffffffffffff16021790555080935050505090565b600a60038054905010610623576040517f08c379a000000000000000000000000000000000000000000000000000000000815260040161061a90610fc4565b60405180910390fd5b6006543414610667576040517f08c379a000000000000000000000000000000000000000000000000000000000815260040161065e90611030565b60405180910390fd5b60076000600154815260200190815260200160002060003373ffffffffffffffffffffffffffffffffffffffff1673ffffffffffffffffffffffffffffffffffffffff16815260200190815260200160002060009054906101000a900460ff1615610707576040517f08c379a00000000000000000000000000000000000000000000000000000000081526004016106fe9061109c565b60405180910390fd5b346004600082825461071991906110eb565b925050819055506003339080600181540180825580915050600190039060005260206000200160009091909190916101000a81548173ffffffffffffffffffffffffffffffffffffffff021916908373ffffffffffffffffffffffffffffffffffffffff160217905550565b60076020528160005260406000206020528060005260406000206000915091509054906101000a900460ff1681565b6003808054905010156107fc576040517f08c379a00000000000000000000000000000000000000000000000000000000081526004016107f390610e9c565b60405180910390fd5b6000600380549050600654610811919061111f565b9050600060056000600154815260200190815260200160002060009054906101000a900473ffffffffffffffffffffffffffffffffffffffff169050600073ffffffffffffffffffffffffffffffffffffffff168173ffffffffffffffffffffffffffffffffffffffff16036108bc576040517f08c379a00000000000000000000000000000000000000000000000000000000081526004016108b3906111ad565b60405180910390fd5b81600460008282546108ce91906111cd565b9250508190555081600260008282546108e791906110eb565b9250508190555060008173ffffffffffffffffffffffffffffffffffffffff168360405161091490611232565b60006040518083038185875af1925050503d8060008114610951576040519150601f19603f3d011682016040523d82523d6000602084013e610956565b606091505b505090508061099a576040517f08c379a000000000000000000000000000000000000000000000000000000000815260040161099190611293565b60405180910390fd5b600067ffffffffffffffff8111156109b5576109b46112b3565b5b6040519080825280602002602001820160405280156109e35781602001602082028036833780820191505090505b50600390805190602001906109f9929190610a74565b506001806000828254610a0c91906110eb565b92505081905550505050565b6000600380549050905090565b60015481565b6000600454905090565b60038181548110610a4557600080fd5b906000526020600020016000915054906101000a900473ffffffffffffffffffffffffffffffffffffffff1681565b828054828255906000526020600020908101928215610aed579160200282015b82811115610aec5782518260006101000a81548173ffffffffffffffffffffffffffffffffffffffff021916908373ffffffffffffffffffffffffffffffffffffffff16021790555091602001919060010190610a94565b5b509050610afa9190610afe565b5090565b5b80821115610b17576000816000905550600101610aff565b5090565b6000819050919050565b610b2e81610b1b565b82525050565b6000602082019050610b496000830184610b25565b92915050565b6000819050919050565b610b6281610b4f565b82525050565b6000602082019050610b7d6000830184610b59565b92915050565b600073ffffffffffffffffffffffffffffffffffffffff82169050919050565b6000610bae82610b83565b9050919050565b610bbe81610ba3565b82525050565b6000602082019050610bd96000830184610bb5565b92915050565b600080fd5b610bed81610b4f565b8114610bf857600080fd5b50565b600081359050610c0a81610be4565b92915050565b600060208284031215610c2657610c25610bdf565b5b6000610c3484828501610bfb565b91505092915050565b610c4681610ba3565b8114610c5157600080fd5b50565b600081359050610c6381610c3d565b92915050565b60008060408385031215610c8057610c7f610bdf565b5b6000610c8e85828601610bfb565b9250506020610c9f85828601610c54565b9150509250929050565b60008115159050919050565b610cbe81610ca9565b82525050565b6000602082019050610cd96000830184610cb5565b92915050565b6000610cea82610b83565b9050919050565b610cfa81610cdf565b82525050565b6000602082019050610d156000830184610cf1565b92915050565b600069ffffffffffffffffffff82169050919050565b610d3a81610d1b565b8114610d4557600080fd5b50565b600081519050610d5781610d31565b92915050565b610d6681610b1b565b8114610d7157600080fd5b50565b600081519050610d8381610d5d565b92915050565b600081519050610d9881610be4565b92915050565b600080600080600060a08688031215610dba57610db9610bdf565b5b6000610dc888828901610d48565b9550506020610dd988828901610d74565b9450506040610dea88828901610d89565b9350506060610dfb88828901610d89565b9250506080610e0c88828901610d48565b9150509295509295909350565b600082825260208201905092915050565b7f4d696e696d756d206f6620546872656520706c6179657273205265717569726560008201527f6400000000000000000000000000000000000000000000000000000000000000602082015250565b6000610e86602183610e19565b9150610e9182610e2a565b604082019050919050565b60006020820190508181036000830152610eb581610e79565b9050919050565b600060208284031215610ed257610ed1610bdf565b5b6000610ee084828501610d89565b91505092915050565b7f4e487b7100000000000000000000000000000000000000000000000000000000600052601260045260246000fd5b6000610f2382610b4f565b9150610f2e83610b4f565b925082610f3e57610f3d610ee9565b5b828206905092915050565b7f4e487b7100000000000000000000000000000000000000000000000000000000600052603260045260246000fd5b7f4d617820506c6179657273000000000000000000000000000000000000000000600082015250565b6000610fae600b83610e19565b9150610fb982610f78565b602082019050919050565b60006020820190508181036000830152610fdd81610fa1565b9050919050565b7f496e636f7272656374205374616b650000000000000000000000000000000000600082015250565b600061101a600f83610e19565b915061102582610fe4565b602082019050919050565b600060208201905081810360008301526110498161100d565b9050919050565b7f4e6f7420416c6c6f776564000000000000000000000000000000000000000000600082015250565b6000611086600b83610e19565b915061109182611050565b602082019050919050565b600060208201905081810360008301526110b581611079565b9050919050565b7f4e487b7100000000000000000000000000000000000000000000000000000000600052601160045260246000fd5b60006110f682610b4f565b915061110183610b4f565b9250828201905080821115611119576111186110bc565b5b92915050565b600061112a82610b4f565b915061113583610b4f565b925082820261114381610b4f565b9150828204841483151761115a576111596110bc565b5b5092915050565b7f556e617574686f72697a65642041646472657373283029205472616e73666572600082015250565b6000611197602083610e19565b91506111a282611161565b602082019050919050565b600060208201905081810360008301526111c68161118a565b9050919050565b60006111d882610b4f565b91506111e383610b4f565b92508282039050818111156111fb576111fa6110bc565b5b92915050565b600081905092915050565b50565b600061121c600083611201565b91506112278261120c565b600082019050919050565b600061123d8261120f565b9150819050919050565b7f5472616e73666572204661696c65640000000000000000000000000000000000600082015250565b600061127d600f83610e19565b915061128882611247565b602082019050919050565b600060208201905081810360008301526112ac81611270565b9050919050565b7f4e487b7100000000000000000000000000000000000000000000000000000000600052604160045260246000fdfea2646970667358221220c5cc00ae1fd581995ee8758075f600e98ceb50af2eb9e0c97616820f1a85da6e64736f6c63430008120033",
  "linkReferences": {},
  "deployedLinkReferences": {}
}